:10000000A023002079080000750800007508000092
:1000100000000000000000000000000000000000E0
:100020000000000000000000000000007508000053
:1000300000000000000000007508000075080000C6
:1000400075080000750800007508000075080000BC
:1000500075080000750800007508000075080000AC
:10006000750800007508000075080000750800009C
:10007000750800007508000075080000750800008C
:10008000750800007508000075080000750800007C
:10009000750800007508000075080000750800006C
:1000A000750800007508000075080000750800005C
:1000B00010B5064C2378002B07D1054B002B02D03E
:1000C000044800E000BF0123237010BD5000002051
:1000D00000000000A018000008B5084B002B03D05A
:1000E0000748084900E000BF07480368002B03D019
:1000F000064B002B00D0984708BDC046000000000A
:10010000A018000054000020A0180000000000000B
:100110003249082230B50A603149324B0A608022E8
:1001200012059A609A61304B1E215A680F208A434B
:1001300002210A432D495A600A6A2D4B13400B6273
:100140002C4B5A6882435A605A782A4852B2002A85
:10015000FADB446883225202224342605A7852B248
:10016000002AFBDB244A1068800E3F2800D11F20A4
:10017000224A234C12689205920DA24200D1214AD4
:10018000800210438A8C8024A2438A84CC68174A58
:10019000E506FBD51C49D16291214900906291840A
:1001A0005A883F218A435A8059888022D2010A43C3
:1001B0005A805A680F218A4301210A435A605A78AB
:1001C0000C4952B2002AFADB4868104A02434A60DE
:1001D0005A7852B2002AFBDB30BDC0468844004149
:1001E00098440041004400410040004100080040A4
:1001F000FFFCFFFF000C00402460800028608000AE
:10020000FF030000FF01000080BB000000070100A9
:1002100010B52B4B8022D2059A605A61294A181CCE
:10022000117801221140284B002200290AD11C68B4
:10023000264A944201D1196016E01A60244A013A14
:10024000002AFCD11A60234B1A68531C0CD080235F
:10025000DB05836180239B011B6883F308881E4BA9
:100260008021890199601047FFF752FF1B4B012243
:100270001A70BFF35F8F62B600F030FB01F07EF8BA
:10028000041CA368201C9847154B002801D00122AC
:100290001A701A78002A05D0002000F023F800F028
:1002A000B7FAFCE71B78002BEBD100F093FB00289A
:1002B000E7D0012000F016F800F0AAFAFCE7C046EB
:1002C0008044004138040040FC7F002035817307E2
:1002D00048E801000420000000ED00E04C00002090
:1002E0006C000020012805D1054B064A1A60064B18
:1002F000187004E0002802D1044A014B1A607047CC
:1003000080010020DC150000750000202816000088
:1003100030B51A4B85B01B78002B29D0042901D1A8
:10032000026804E0022901D1028800E00278490055
:1003300004A843180B3B5C1AA3420BD00F201040BB
:10034000092802D83025284300E0373018701209F8
:10035000013BF1E701A830230370782343700A22A0
:1003600043189A700D22DA70054B04311B6801E0C6
:10037000034B1B68DB68984705B030BD7400002054
:100380008001002072B6BFF35F8F064B00221A7007
:10039000EFF30883044A1360036883F30888436813
:1003A000184770474C0000208401002007B5072340
:1003B0000F220240111C00093031092A00DD0731EB
:1003C0006A469954013BF3D2034B68461B680821E7
:1003D000DB68984707BDC04680010020F0B5CD4CD2
:1003E000CD4D236840211B6987B0281C9847CB4915
:1003F000CB4ACC4B0860002015601860C94EC74935
:10040000326809688A4200D3F5E1C54F386802783E
:10041000FF2A00D1E6E1232A00D0BDE1C24D2B78AE
:10042000002B04D02368C148DB6802219847C04BE9
:100430001B78532B3DD1B9493268086890421ED9C8
:10044000B74B01321B683260191CB54B0131196082
:10045000B84B821A1B689A4200D91A1CB64BB74D8A
:1004600018682A6001F098F8AE4E2B683668386834
:100470009A19AC4E3260C2183A60B14A1370A94959
:10048000A74F0968A74E0B1C3F68013B33603B1C1C
:10049000A34E013B3360A74AA94B11681B788B42DE
:1004A00005D22268A448C91A006892699047C046DC
:1004B00020E1522B06D1A04A236810689D4A5B694F
:1004C000116816E14F2B05D19B4B9A4A1B681268A5
:1004D0001A700FE1482B05D1974B964A1B6812689A
:1004E0001A8007E1572B05D1934B924A1B6812687B
:1004F0001A60FFE06F2B03D18F4B0121186807E0D2
:10050000682B08D18C4B8B481B6802211B88036029
:10051000FFF7FEFEEEE0772B06D1874B85481B6880
:1005200004211B680360F3E7472B17D1814B186840
:10053000FFF728FF834B1B6883F30888824B012257
:100540001A70BFF35F8F62B6804B1B78002B00D10F
:10055000D0E0236806201B689847CBE0542B02D1DB
:1005600001232B7056E04E2B0AD12B78002B04D19F
:1005700023686E48DB680221984700232B70B9E09E
:10058000562B4CD123680121DB68714898472368BA
:100590000321DB686F4898476F4D2368281CDB6890
:1005A0000121984723680E21DB686C48984723682F
:1005B000281CDB6801219847594E5A4D6848002392
:1005C00030602B60321C291C13685F1C17601F7879
:1005D000002F03D00B6801330B60F5E7236829680F
:1005E000DB68984723685C48DB68012198475D48D1
:1005F0002F6030604A4A1368591C11601B78002B29
:1006000004D0484B1A6801321A60F3E7236829685E
:10061000DB68984723684548DB68022169E0454A62
:10062000582B15D11368504A1068504A1568AD0010
:10063000834209D24E4A5908D1614E491180117D39
:10064000CF07FCD55B19F3E723684B48DB684FE025
:10065000592B32D11268384B4849002A02D11B6805
:100660000B6026E0086842491D684B688026B3434A
:1006700092084B60002A1CD0414B0B800B7DDE079B
:10068000FCD50023394E3668B608B34202D33D4E3E
:100690000E8006E09342FAD09E0087590133AF5195
:1006A000F0E70E7DF707FCD59E00AD198019D21A30
:1006B000E0E723683448DB681AE05A2B1AD11E4B56
:1006C00017681D680026EF19BD4206D02878311C36
:1006D00000F0A2F90135061CF6E723680121DB686A
:1006E0002A489847301CFFF761FE23682848DB68DA
:1006F000032198470E4B7A221A700E4B00221A6083
:10070000094B1B7893426DD023680121DB68214897
:10071000984767E0800100203C0100202001002074
:100720002401002034010020740000201C16000069
:1007300028010020880100207C0100208C0100207D
:100740001C010020840100204C00002075000020C6
:10075000F815000021160000FA15000044160000EC
:10076000FC150000081600002C01002038010020B4
:100770000040004102A5FFFF11160000700000209C
:1007800044A5FFFF04A5FFFF151600001916000081
:100790001B1600001F160000111C3039C8B2174B81
:1007A000092804D818680201114319601AE0111CC5
:1007B0004139052903D81E68373A310106E0111C7A
:1007C0006139052904D81F68573A39010A4308E0FE
:1007D0002C2A03D10A4A1868106001E009490A70FE
:1007E00000221A60084B1A6801321A60074B1A6817
:1007F00001321A6002E607B0F0BDC0468801002051
:100800007C01002028010020340100202401002068
:1008100030B5114A89B06B4631CA31C331CA31C3D0
:1008200011CA11C30D4A694693685B035B0F9B00B5
:100830005B580B490B6092680A4992B253430A60B5
:10084000094900220B60094B1A60094B7A221A7081
:10085000FFF7C4FDFCE7C046BC15000000400041A6
:1008600038010020300100202C0100207C010020F4
:1008700028010020FEE700001148124910B5884207
:1008800001D0002301E0104B07E0104CCA18A2422F
:10089000F9D2C45804331460F7E70D4A191D043B1C
:1008A000934203D200221A600B1CF6E7094A0A4B56
:1008B000FF218A439A6000F049FEFFF7A9FCFEE79A
:1008C000A01800000000002054000020500000206C
:1008D0009C0300200000000000ED00E038B5234A32
:1008E0000124131C4A331978153B21435975187894
:1008F0000F218843187018780225284318704B324E
:1009000010781B4D204310701A78281C1140197064
:100910001A7820210A431A7000F0B4FD154B811C8F
:100920001A6A8C4014431C62134B3F2258881231C0
:10093000114090430843588059888022D2010A43CD
:100940005A80C422281C0D49920300F0B3FD0C4BC1
:1009500000241C700B4B1C700B4B1C700B4B1C7041
:100960000B4B1C700B4B1C7038BDC0460044004143
:100970000008004200040040000C004004C50000D4
:100980009001002017020020910100209401002016
:10099000180200201502002008B5C1B2024800F07C
:1009A000B7FD012008BDC04600080042024B187E7A
:1009B0004007C00F7047C0460008004208B5FFF767
:1009C000F5FF0028FBD0024800F0A8FD08BDC04696
:1009D0000008004208B5FFF7E9FF0023984205D060
:1009E000FFF7ECFF031C233B5A425341181C08BD80
:1009F00070B5041C0D1C4618B44204D02078FFF7D3
:100A0000CBFF0134F8E7281C70BD10B5041CFFF7BC
:100A1000D5FF2070012010BD0B0A5840034B400049
:100A2000C05A0902484080B27047C04654160000C0
:100A3000F7B50024051C0F1C261CBC4220D0FFF774
:100A4000BDFF114BC0B21B780190002B1AD1311C95
:100A5000FFF7E2FF0D4B061C1A88002A04D10C4A4E
:100A600011782A1C002907D001996A1C2970802F4F
:100A700002D11988013919800134A4B2151CDCE7B0
:100A8000301C00E00120FEBD150200209201002074
:100A900016020020F0B585B003AC051C0191201CA6
:100AA0000221FFF7C5FF281C8021FFF7C1FF134D6E
:100AB000061C2B78002B18D1FFF780FF0702FFF7E9
:100AC0007DFFBFB22B783F18BFB2012B0DD0B742CC
:100AD00008D12378019A934204D1DB436278DBB2D8
:100AE0009A4204D01820FFF757FF002003E00620A9
:100AF000FFF752FF012005B0F0BDC04615020020EF
:100B0000F0B53E4E85B0002203900C1C32703C4B79
:100B1000914201D1012201E03A490C801A707F23F1
:100B20001C4201D080349C43FFF748FF3378C0B2A9
:100B3000002B07D000253570FFF740FF3378C0B297
:100B4000AB4236D1432803D0712853D01528EBD1BE
:100B5000012300930120FFF71FFF0098FFF71CFF00
:100B600000998025C843C0B2FFF716FF039B0027FA
:100B70000293244A1388002B1DD12149019309783F
:100B8000002918D10198FFF707FF391C0198FFF7DA
:100B900043FF013D071C002DEBD1000AC0B2FFF757
:100BA000FBFEF8B2FFF7F8FEFFF708FF3378002BE3
:100BB0000AD035701FE00299013B09781380029B2F
:100BC000019101330293DDE7C0B2062807D1009BF3
:100BD00003990133DBB280310093803C0391002CF8
:100BE000B8D10420FFF7D8FEFFF7E8FE044B01253B
:100BF0001C7000E00025281C05B0F0BD1502002087
:100C00001602002092010020F8B5234D0023071C96
:100C10002B70994201D1012301E0204A1180204A22
:100C2000642413704320FFF7B7FE1E4EFFF7BEFE8D
:100C3000002803D1002E03D0013EF7E7002E03D198
:100C4000013C002CEED125E00126FFF7B7FE2C7801
:100C5000002C01D000240FE0C0B2012805D00428E8
:100C600014D10620FFF798FE10E0381C311CFFF766
:100C700011FF2B78002B01D02C700BE0012803D141
:100C80000136F6B28037E0E70028DED1044A0023BF
:100C900013700124201CF8BD1502002092010020D1
:100CA0001602002000350C00F8B51E4E151C3378D6
:100CB0000468002B12D11C4B1C4A1A645A6C920B0C
:100CC00092035A64586C1A4A02405A64A2235B0089
:100CD000E25C40200243E254012333704827FF378F
:100CE000E25D012313401AD00F4B5A6C9204920C10
:100CF000AA4202D25D6CAD04AD0C081C2A1C0B4943
:100D000000F04AFCE25D03231A4001210A43E15D41
:100D100099430B1C1343E3550023337000E01D1C63
:100D2000281CF8BD9000002094000020DC02002068
:100D3000FF3F00F0F7B5141C0068234A5E011D1C3C
:100D4000019093195869271C4000400F033010335D
:100D5000C74006D00F1C8022596812060A435A6009
:100D600009E02F1C7B1E9F41184BBF01FF18381C48
:100D7000221C00F011FC144AA10496193761726913
:100D8000890C920B92030A4372617169104A08350B
:100D90000A407261019F6B01FB18D979032211404F
:100DA00002200143D8799043021C0A43DA71597931
:100DB000802252420A435A71019F6B01FB18DB7972
:100DC0009A07F9D5201CFEBD940000201C030020CA
:100DD000FF3F00F038B5384B2021DA690F200A4375
:100DE000DA61364B0122197811431970344B1978A6
:100DF000814319701C7806210C431C70314C2578F6
:100E0000154325701C782040187018786024204302
:100E100018702D4B3F245888A043014359805888AF
:100E20008221C90101435980284B19780A431A705D
:100E30009A78D107FCD426480268510B1F22114032
:100E4000914200D1052111408C011D8D214929407D
:100E5000214319850468A10C0A401F2A00D11D22D4
:100E60001C8D1F210A408C4322431A8502680721EA
:100E7000D20D0A408A4200D103220A40188D110384
:100E8000154A02400A431A8519787F220A401A70CF
:100E90001A78042111480A431A7058621A890C21E1
:100EA0008A431A811A8901218A431A8100218022EA
:100EB00000F07BFB38BDC0460004004058440041B0
:100EC0003C44004159440041000C004000500041A6
:100ED000246080003FF8FFFFFF8FFFFF9400002099
:100EE000002303714371064B01608360054B0222AE
:100EF000C360054B03610B7813430B707047C0460A
:100F0000450F0000350D0000A90C00000C4BFF3010
:100F10005A690221920B92035A61027A03231A4002
:100F20000A43017A99430B1C13430372827980238D
:100F30005B4213438371037A9A07FCD57047C0461E
:100F400094000020F7B50468051CA38B082003401B
:100F5000201CFF30002B29D0A38B08210B43A38337
:100F600011228023A3724270402282714371AD4BE3
:100F7000AD4C5E68C021264089050E435E605E6907
:100F8000344021435961A9491960A94919615C6834
:100F9000A84921408024A402214359605968890B43
:100FA00089035960002342712B71E1E1017A10221B
:100FB000114200D1DCE1017A9C4E0A4302729E4F3D
:100FC00032789E493A707278984F0A70BA789C4E7F
:100FD0008C463280F978328809020A4332803A79A5
:100FE00098490A800A887979964F09020A433A801B
:100FF0008E4FBA79944F3A8039888C4A0191D179D1
:10100000019A09020A433A804021624641711178EF
:10101000894A0902127811438C4A9446894A6145EB
:1010200000D19AE11CDC80277F00B94200D1F1E0B9
:1010300009DC812900D198E0822900D19AE0802939
:1010400000D08EE191E081235B00994200D111E153
:1010500000DA82E1C0239B00994200D1DAE080E10E
:1010600088200001814200D17BE00CDCA023DB0062
:1010700099426CD0D023DB0099424BD0744B9942FB
:1010800000D06EE199E0734B994200D165E135DC07
:1010900090231B01994200D063E13388201C2B71FF
:1010A000FFF734FFA02303225B00E2545D4B5E4A4E
:1010B000586CC02110408905084358644620FF3011
:1010C000402626545948302640301864902040006D
:1010D0002654586B4027104001439220596340002A
:1010E000802121545C481863B02040002754586F79
:1010F00002405A67B2235B00E15439E1574B9942F1
:1011000000D11EE1564B994200D02AE14C4F3B885A
:101110006B7122E1328880235B009A4208D13B88C0
:101120001222934201D83A8892B2281C4D4910E10C
:10113000328880239B009A4200D012E13B884322F0
:10114000934201D83A8892B2281C474901E1201CF9
:10115000FFF7DCFE328880235B421343DBB2A372CD
:1011600006E1291D281C0122F4E04049281C0B80BF
:101170000222EFE03D490B80168850231E403C4B75
:101180001E7017880F263E4016801688032E41D801
:101190001B78002B06D0138808335B01E418A37971
:1011A0009B0605E0138808335B01E418A379DB068E
:1011B000DB0F0B80281C0222CBE011887F23994390
:1011C0002B4BC9B2197010880F2101401180318852
:1011D000002900D0C5E01188002900D1C1E01188A4
:1011E000032900D9BDE01B78002B08D013883021DB
:1011F00008335B01E3185A798A43202107E01388FA
:10120000302108335B01E3185A798A4310210A43DD
:101210005A71A2E0837930229343202213438371D1
:10122000A6E0C04694000020FFFFFF8F9C02002034
:101230001C030020FF3F00F09100002092000020DE
:101240001401002076000020780000200103000037
:1012500002030000212000005C030020A121000007
:101260002122000054180000000000201601002078
:101270001801002011887F2399433E4BC9B2197091
:1012800010880F21014011803188002969D111880F
:10129000002966D01188032963D81B78002B24D03D
:1012A000138808335B01E31899790223880654D523
:1012B000118830260831490161180879B043202689
:1012C0003043087111880320083149016118C97938
:1012D00049090140194240D011886026083149016E
:1012E0006118C879B043402623E0138808335B01B6
:1012F000E31899790123CE062FD5118830260831BD
:10130000490161180879B0431026304308711188EB
:101310000320083149016118C9794909014019427E
:101320001BD011886026083149016118C879B04383
:1013300020263043C871128808325201A218137156
:101340000BE03B880822934201D83A8892B20A49BE
:10135000281C0023FFF7EEFC0AE0201CFFF7D6FD57
:1013600006E0FF34A3793022934320221343A37174
:101370002879FEBD180100204400002010B5054B5F
:10138000054C2360FFF726FD201C2168FFF7A8FD10
:10139000201C10BD005000417C00002007B5012238
:1013A000019001A90248131CFFF7C4FC01200EBDE7
:1013B0007C00002013B56C460734211C0122024832
:1013C000FFF772FC207816BD7C00002010B5074C9A
:1013D000201CFFF7B7FD031C0020834205D02268C4
:1013E0004823FF33D05C0123184010BD7C0000204F
:1013F00010B5074A0C1C8021031C0905D161054862
:10140000191C221C0123FFF795FC201C10BDC046AF
:10141000004400417C00002070B50A4B0A4C0822B1
:101420001A60061C201C0D1CFFF78CFD002398423F
:1014300005D0201C311C2A1CFFF736FC031C181C8D
:1014400070BDC0469C4400417C000020F8B50C4CA7
:10145000051C201C0E1CFFF775FD0023271C341CE7
:1014600098420AD0002C07D0291C221C381CFFF7F8
:101470001BFC241A2D18F5E7331C181CF8BDC046B8
:101480007C00002070B50A4986B06B4670C970C3F5
:101490006A4670C970C3002399005158884204D02D
:1014A0000133062BF8D1002000E0181C06B070BDF7
:1014B0006818000010B5C3699C07FCD403680224B7
:1014C000A3430360C46901231C42FBD10468234386
:1014D00003600368DC07FCD4C46901231C42FBD110
:1014E000C469DC401C42F7D1084B1A430260C3694F
:1014F0005A07FCD4C0239B0243608181C3699C07C7
:10150000FCD4036802221343036010BD04000040B2
:10151000037EDA07FCD5018570470000027E0123B7
:101520005107FBD5428B1A4207D1428BDA401A424F
:1015300003D1428B92081A4202D0034B01221A7047
:10154000008DC0B27047C0461901002070B50E4B27
:101550000E4D0024ED1AAD101E1CAC4204D0A300A9
:10156000F35898470134F8E700F08AF9084B094D21
:101570000024ED1AAD101E1CAC4204D0A300F35899
:1015800098470134F8E770BD8C1800008C180000F3
:101590008C1800009018000010B50023934203D06F
:1015A000CC5CC4540133F9E710BD031C821893428C
:1015B00002D019700133FAE77047000008000000FC
:1015C000100000002000000040000000800000002B
:1015D0000001000000020000000400009909000062
:1015E000BD090000AD090000F10900000B0A000070
:1015F000010B0000090C0000760020004E6F7620E1
:10160000313620323031350030393A30333A3434E3
:1016100000580A0D00590A0D005A00230A0D003E19
:1016200000312E31000000009D130000B5130000B2
:10163000CD130000F113000019140000F113000095
:101640004D1400005B537061726B46756E3A5859C9
:101650005A5D000000002110422063308440A550F4
:10166000C660E770088129914AA16BB18CC1ADD1E8
:10167000CEE1EFF13112100273325222B552944290
:10168000F772D662399318837BB35AA3BDD39CC338
:10169000FFF3DEE36224433420040114E664C774DC
:1016A000A44485546AA54BB528850995EEE5CFF588
:1016B000ACC58DD55336722611163006D776F66630
:1016C0009556B4465BB77AA719973887DFF7FEE7D8
:1016D0009DD7BCC7C448E5588668A77840086118FC
:1016E00002282338CCC9EDD98EE9AFF94889699928
:1016F0000AA92BB9F55AD44AB77A966A711A500AD0
:10170000333A122AFDDBDCCBBFFB9EEB799B588B77
:101710003BBB1AABA66C877CE44CC55C222C033C1B
:10172000600C411CAEED8FFDECCDCDDD2AAD0BBDC7
:10173000688D499D977EB66ED55EF44E133E322E6F
:10174000511E700E9FFFBEEFDDDFFCCF1BBF3AAF17
:10175000599F788F8891A981CAB1EBA10CD12DC175
:101760004EF16FE18010A100C230E320045025400B
:1017700046706760B9839893FBA3DAB33DC31CD36B
:101780007FE35EF3B1029012F322D232354214525B
:1017900077625672EAB5CBA5A89589856EF54FE5B7
:1017A0002CD50DC5E234C324A014810466744764AB
:1017B00024540544DBA7FAB79987B8975FE77EF70B
:1017C0001DC73CD7D326F2369106B01657667676FB
:1017D000154634564CD96DC90EF92FE9C899E989D7
:1017E0008AB9ABA94458654806782768C018E1084B
:1017F0008238A3287DCB5CDB3FEB1EFBF98BD89BAB
:10180000BBAB9ABB754A545A376A167AF10AD01A9A
:10181000B32A923A2EFD0FED6CDD4DCDAABD8BADF6
:10182000E89DC98D267C076C645C454CA23C832CEA
:10183000E01CC10C1FEF3EFF5DCF7CDF9BAFBABF4A
:10184000D98FF89F176E367E554E745E932EB23E3A
:10185000D10EF01E12011001020000404F1B210D9D
:10186000100100000001000000080042000C0042CE
:10187000001000420014004200180042001C004208
:10188000F8B5C046F8BC08BC9E467047D9000000B9
:10189000F8B5C046F8BC08BC9E467047B1000000D1
:1018A00009024300020100C0000904000001020215
:1018B0000000052400100104240200052406000194
:1018C0000524010001070583030800FF0904010046
:1018D000020A00000007058102400000070502021D
:1018E0004000000000C201000000080001000000EC
:1018F000FFFFFFFFFFFFFFFFFFFFFFFFFFFFFFFFF8
:10190000FFFFFFFFFFFFFFFFFFFFFFFFFFFFFFFFE7
:10191000FFFFFFFFFFFFFFFFFFFFFFFFFFFFFFFFD7
:10192000FFFFFFFFFFFFFFFFFFFFFFFFFFFFFFFFC7
:1020000000800020F1340000D9340000D9340000F1
:1020100000000000000000000000000000000000C0
:10202000000000000000000000000000D9340000A3
:102030000000000000000000D93400004535000019
:10204000D9340000D9340000D9340000D93400005C
:10205000A9340000D9340000D9340000DD34000078
:10206000D9340000F1320000D9340000D934000026
:10207000D9340000D934000001330000D934000005
:10208000D9340000D9340000092B0000D9340000F5
:1020900000000000D9340000D9340000D934000019
:1020A000D9340000D9340000D9340000D9340000FC
:1020B0000000000010B5064C2378002B07D1054B1B
:1020C000002B02D0044800E000BF0123237010BDA4
:1020D0000C01002000000000E060000008B5084B83
:1020E000002B03D00748084900E000BF07480368F9
:1020F000002B03D0064B002B00D0984708BDC046EC
:1021000000000000E0600000100100200801002035
:102110000000000013B500206C46E07103F08EFA59
:102120000734201A16BD000010B5074C00210A1C08
:102130000B1C201C00F0ACFA1B210E22231C0348B0
:1021400000F00EFD10BDC04628010020380100201F
:1021500038B51F4CE1214902201C02F071F81D48DE
:1021600001F004FA1C49201C01F0B8FC1B49201C9A
:1021700001F0A2FCFFF7CEFF0A22011C201C01F097
:10218000FCFCFA20800001F0F1F9154D281C00F04C
:102190002BFA0720032101F005FC124800F09CFFF8
:1021A000002807D1201C104901F098FCFA2080007B
:1021B00001F0DCF9281C00F0EDF9201C0B4901F0BE
:1021C0007BFC201C01210A2201F0D7FC38BDC0464F
:1021D0000003002010270000E0560000EA5600002F
:1021E0002801002038010020F456000000570000AC
:1021F00070B5274C92B02749201C01F06FFC26498E
:102200000D2201A803F05EF9244D0D2201A9281C1E
:1022100000F047FE2249201C01F060FC281C00F061
:102220002DF92049201C01F059FCFA216E46322379
:10223000281C4900F370033600F02AF9002812D058
:10224000281C05A9321C00F057FD002806D01649AD
:10225000201C01F031FC201C05A901E01349201CC1
:1022600001F03CFC0EE01249201C01F037FC642018
:1022700001F07CF9281C00F094FC0A22011C201CAF
:1022800001F08FFCC820400001F070F912B070BD61
:10229000000300200E5700008E5700003801002078
:1022A000255700003E5700005457000060570000BB
:1022B0006C570000437A002B04D18372C372C36051
:1022C00001234372704730B585B0041C02AD00682D
:1022D0000291039201F048FD6B79E179227A009333
:1022E0002068002301F0E2FD29792068029A01F0BC
:1022F0000BFD206801F02EFD05B030BD70B5041C4B
:102300001826FFF7D7FF2079331C43430D4D0821D2
:10231000EB18595601F046FBA079331C43430821C2
:10232000EB18595601F03EFB607908214643AD1980
:10233000695601F037FB044B201C06CBFFF7C3FFA7
:1023400070BDC046AC5B00009C01002010B5041CB1
:10235000006801F0F1FC0023637210BD07B5837AB9
:1023600000910192002B0DD09A0706D5EFF3108350
:102370005A425341C37272B604E0DA0702D5828929
:10238000034B9A600099019AFFF79DFF07BDC04675
:1023900000180040837A002B0BD09A0704D5C37A2B
:1023A000002B06D062B604E0DA0702D58289014B21
:1023B000DA6070470018004008B5006801F0DDFCE5
:1023C00008BD704770470000094B0A4A0A491A6065
:1023D00000225A711A71094B1960142119711521C3
:1023E00099710721597102215A72D9711A72704775
:1023F0009C01002000093D0098020020A40100205B
:10240000012070470020704781717047417170470B
:10241000C17270470173704741737047837B934368
:10242000194381737047C079C0B27047007AC0B257
:102430007047407AC0B27047807AC0B27047008A55
:1024400000B270470079C0B2704701717047002038
:102450007047408A80B27047808A80B27047C08AD5
:1024600080B2704710B5041C2368201C5B68984735
:10247000002802D101F094F8F6E710BD10B5041C55
:102480002379032B02D101F08BF8F9E7012010BD6D
:1024900070B5041C0D1C01F063F8061C01F060F817
:1024A000801BA84208D22368201C5B68984700283C
:1024B00004D101F075F8F1E7002000E0012070BDC3
:1024C00070B5061C0C1C01F04BF8051C01F048F817
:1024D000401BA04205D23379032B04D101F060F8F0
:1024E000F4E7002000E0012070BD38B5041CE3696A
:1024F0000120002B1AD001F033F8051C2368201CA2
:102500009B6A984700280ED001F02AF8E369401B27
:1025100098420AD80A21012001F0D2FD64235843D1
:1025200001F024F8EAE7012000E0002038BD0000B7
:10253000074BFF220833036000230371427143827B
:10254000C2728382027343738373C382C361704711
:10255000A05700007047704770477047704741713F
:1025600070478171704701717047000010B5034CCE
:102570000171083404604271837110BD1858000065
:102580007047000008B50248FFF716FF08BDC046B7
:10259000A401002008B50248FFF713FF08BDC0469C
:1025A000A401002008B50248FFF70CFF08BDC04693
:1025B000A401002008B50248FFF7C8FE08BDC046C8
:1025C000A401002008B5031C99680248DA68FFF7E7
:1025D000C5FE08BDA401002008B50248FFF7DAFED9
:1025E00008BDC046A401002010B50379042B07D014
:1025F000032B07D0022B07D0012B07D11D4B06E080
:102600001D4B04E01D4B02E01D4B00E01D4B81798A
:102610004479022200290BD0012906D0914206D02C
:1026200003394A1E91414A1C02E0002200E00322C5
:1026300015498B4200D90B1C611E4C426141C9B245
:10264000022A05D0032A05D0012A05D1032204E07D
:10265000002202E0022200E001221C0A03724472FE
:102660001C0C1B0E8472C372027341730748FFF780
:1026700045FE10BD80841E000024F40000127A0084
:1026800000093D0040420F00001BB700A4010020DC
:1026900010B5041CFFF76AFF044B201C08332360AD
:1026A000034BA36000236373237310BD50580000D5
:1026B00000093D0008B5002102480A1C0B1CFFF769
:1026C000E7FF08BDB401002072B6BFF35F8FBFF310
:1026D0004F8FBFF36F8F0120704710B5041C006A45
:1026E00005340368DB689847E07F012101F0B8F802
:1026F000E07F012101F00EF9642000F037FF012096
:1027000010BD80F31088BFF35F8FBFF34F8FBFF30F
:102710006F8FBFF35F8FBFF34F8FBFF36F8F704724
:1027200070B5041C0D1C161CFFF702FF034B26623C
:1027300008332360631DDD77201C70BD88580000BE
:10274000F7B5041C0F1CEFF31086FFF7BDFF002840
:1027500014D0651DE87F002101F0DCF8206A7F219C
:10276000036839401B689847206A002103681B688A
:1027700098470190E87F012101F0CCF8301CFFF769
:10278000C0FF0198FEBDF7B5041C00910192EFF364
:102790001086FFF799FF0025A8421DD0206A671D0B
:1027A00003681B6A9847291CF87F01F0B3F8206A78
:1027B000009A0368802111431B689847051C206A12
:1027C000019903681B689847F87F012101F0A2F87E
:1027D000206A03685B6A9847301CFFF792FF281C49
:1027E000FEBDF0B585B0041C0D1C01920393EFF300
:1027F0001087FFF769FF0026B04229D0206A0368DE
:102800001B6A9847611D0291C87F311C01F082F854
:10281000206A7F21036829401B689847019D061C98
:10282000019B03995A18D2B2EBB29A4207D0206AA0
:10283000002103681B68984728700135F0E7029B68
:102840000121D87F01F066F8206A03685B6A984727
:10285000381CFFF756FF301C05B0F0BDF0B585B051
:10286000041C0D1C01920393EFF31087FFF72CFF5C
:102870000026B04228D0206A03681B6A9847611D71
:102880000291C87F311C01F045F8206A802103685D
:1028900029431B689847019D061C019B03995A1800
:1028A000D2B2EBB29A4206D0206A29780368013589
:1028B0001B689847F1E7029B0121D87F01F02AF8B5
:1028C000206A03685B6A9847381CFFF71AFF301CC0
:1028D00005B0F0BD08B5006A03689B6A984708BD5B
:1028E00010B5C31C041CD87F01F044F80634431E05
:1028F0009841E37F584010BD08B50430C07F01F017
:1029000009F808BD08B5431D0730C27FDB7F514081
:10291000181C00F0FFFF08BD10B50379041C022B42
:1029200008D00021FFF7EEFF201C0021FFF7E4FF95
:102930000223237110BD0000082388101840031CD7
:102940000833DBB2984206D0044A125C8A4203D0B4
:102950000130C0B2F6E700207047C04600590000C1
:10296000F8B5041CFFF7BCFF002805D0231C2A3350
:102970001A780132D2B21A70221C29321178231C23
:102980002B3388420AD01D781D214F2D00D80B21F2
:102990001D786918C9B21970107003E01A781432E2
:1029A000D2B21A701A789F2A6AD9E28D5208E2854B
:1029B000221C2A321178042904D9E08D80210901D2
:1029C0000143E1851978251C6031C9B219700023D3
:1029D00013702C352B78DBB2002B3FD0261C303601
:1029E00033780133DBB233700B2B49D9E18D3F23B0
:1029F0001940201CFFF7A0FFE18D071C8909C9B20F
:102A0000201CFFF799FF231C75333F0119783843C9
:102A1000221CC0B27432002915D01978C9B24F1CDB
:102A200061183031FFB21F704870197813789942DD
:102A300011D300232B70231C08330122DA77201CCA
:102A4000FFF76AFF07E010701178062912D9117894
:102A500043290FD8E1E70023337011E0E18D094AE3
:102A600091420DD101222A70221C3032753413702C
:102A7000237005E000232B70638A01339BB26382CD
:102A8000F8BDC046380B0000F7B5051C78352F7827
:102A9000041C7B1C2B70002F23D1021C7632019268
:102AA00013788932127A9A4206D8FFF735FFE38A03
:102AB00001339BB2E38214E0C318061C77367833E7
:102AC000597833785A1C1941327001221140FFF7AE
:102AD00013FF3378052B04D9019A3770137801332B
:102AE00013702B78072B01D900232B70F7BD08B585
:102AF0000379042B02D1FFF733FF04E00379032BA2
:102B000001D1FFF7C1FF08BD08B5054B10219A7B25
:102B10000A439A73034B1868FFF7E9FF08BDC046E4
:102B2000002C0042C401002072B6BFF35F8FBFF3D8
:102B30004F8FBFF36F8F012070477047704732206F
:102B4000704780F31088BFF35F8FBFF34F8FBFF3E1
:102B50006F8FBFF35F8FBFF34F8FBFF36F8F7047E0
:102B600038B5151C1A1C041CFFF7DAFD074B211C95
:102B700008332360E31DDD7728310123221C0B700D
:102B80008B700832FF23201CD37738BDF85A000021
:102B900008B507218022FFF7F6FD012000F0E6FCD2
:102BA00008BD08B50221FFF7CBFD08BD08B50A1C1A
:102BB0000721FFF7E8FD08BD10B50379041C012BC0
:102BC00004D00021FFF7F2FF01232371012010BD83
:102BD000037910B5041C022B06D0031C2833197886
:102BE000FFF7E4FF0223237110BD38B50379041CFD
:102BF000042B07D0031C2833197804252943FFF739
:102C0000D5FF257138BD10B5041C5E342378DBB2C6
:102C1000002B04D10279032A03D0FFF7E6FF2378C3
:102C2000DBB2181C10BD08B508220A436D21FFF75E
:102C3000AAFD08BD38B50D1C041C0A781C21FFF73D
:102C4000A2FD6A78201C1F21FFF79DFDAA1C201CF5
:102C500020210623FFF702FE2A1C03230832201C32
:102C60002C21FFF7FBFDEA7A201C5821FFF78BFD92
:102C70002A7B201C6921FFF786FD2A1C0D32201CAF
:102C80006E210523FFF7EAFD38BD000010B5041CD6
:102C900086B000201B290BDC12225143054B01A8F2
:102CA000591802F00FFC201C01A9FFF7C3FF0120F7
:102CB00006B010BD1259000008B50A1C3421FFF7F8
:102CC00062FD08BD10B50C1C131C3621221CFFF739
:102CD000C5FD10BD38B5041CEFF31085FFF724FFC8
:102CE000002805D0221C00232B325E341370237081
:102CF000281CFFF726FF38BD0368F7B55B68041C86
:102D00000F1C151C9847061E1ED0002F19D0002D31
:102D100017D0EFF310830193FFF706FF00280DD0C3
:102D2000231C2B331A782978914201D91B782B70F8
:102D3000211C2A78381C2C3102F0C4FB0198FFF7C3
:102D400000FF201CFFF7C6FF301CFEBD38B5041C79
:102D5000EFF31085FFF7E8FE002805D0221C0023C2
:102D60002B325F3413702370281CFFF7EAFE38BD46
:102D7000F7B5041C01912B342378061C9B18151CF5
:102D80000020322B15DCEFF31087FFF7CDFE002873
:102D90000BD020782A1C3618301C2C30019902F0F8
:102DA00091FB2378ED18EDB22570381CFFF7C9FEB2
:102DB0000120FEBD70B5051C0E1C141CFFF7C6FFDC
:102DC0000020844204D0281C311C221CFFF7D0FFB5
:102DD00070BD38B5041C031C5F342B3321781A787E
:102DE000914213D21A782378D31ADBB21D1C3B2BE5
:102DF00000D93B252278EDB282182B1C2C327F2182
:102E0000FFF72CFD2378ED18EDB2257038BD2B307F
:102E10000378704710B50821041C0322FFF7B3FCA8
:102E2000201C08210022FFF7AEFC10BD10B50821C0
:102E3000041C0222FFF7A7FC201C08210022FFF738
:102E4000A2FC5E340023237010BD10B50379041C6E
:102E5000032B0BD0031C28331B7808211943FFF7E1
:102E6000A5FE201CFFF7E2FF0323237110BD10B560
:102E7000041CFFF7AEFF231C2B331A783E21D2B27D
:102E8000201CFFF780FC201CFFF7DFFF10BD08B5FA
:102E900002230371031C5F3300221A70FFF7E7FF60
:102EA00008BDF7B50368041C9B6901920F1C984785
:102EB0002368201C5B6A984700282AD0EFF310850E
:102EC000FFF732FE012600281FD0E27A3A21201CAB
:102ED000FFF759FC227B3B21201CFFF754FC627B4F
:102EE0003C21201CFFF74FFCA27B3D21201CFFF75B
:102EF0004AFC201C391C019AFFF75CFF002803D014
:102F0000201CFFF7B4FF00E0061C281CFFF719FE89
:102F1000301CFEBDF7B501AD022303212A1C041CA1
:102F2000FFF75FFC2B787F2B0FD9201CFFF772FF78
:102F30002379032B03D1201CFFF7A9FF05E0237998
:102F4000042B02D1201CFFF7C5FE2B789A0602D570
:102F5000201CFFF73EFF2B78DA0602D5201CFFF776
:102F600056FF2B781A0703D52368201C1B6F984740
:102F70006B781A0703D52368201C5B6F98472B7862
:102F80005A0705D5E28A013292B2E2820222227108
:102F90000222134234D0201C4B21FFF7D1FB071E25
:102FA000322F5BD8261C2B363378984256D3327892
:102FB0003378A218C31A2C32DBB27F21201CFFF712
:102FC00010FC4721201CFFF7BBFB4821E071201CAF
:102FD000FFF7B6FB49212072201CFFF7B1FB4A2105
:102FE0006072201CFFF7ACFBA072A38A01220133A0
:102FF0009BB2A382022337702371231C5E331A70A5
:103000002B78DA0717D5638A201C01339BB26382C1
:10301000FFF760FE201CFFF709FF022323712379CD
:10302000042B08D0231C2833197804263143201C94
:10303000FFF7BCFD26716B785A0618D52621201C97
:10304000FFF77EFB4008783840B280B2208200F063
:1030500087FA2066201CFFF7E9FE05E0638A01334A
:103060009BB2638202232371201CFFF733FEF7BD5E
:1030700008B5034B1868002801D0FFF74BFF08BDC7
:10308000C801002008B5034B5868002801D0FFF79D
:1030900041FF08BDC801002008B5034B986800280F
:1030A00001D0FFF737FF08BDC801002010B5041C90
:1030B000002907D00B211522FFF765FB201C0C21EE
:1030C000122206E00B211222FFF75DFB201C0C21CF
:1030D0001522FFF758FB10BDF0B56A4D85B0041CF2
:1030E0006949281C00F0FAFC201CFFF7F6FA019051
:1030F000002802D100230193C0E06449281C00F09D
:10310000EDFCE71D6249281C00F0E8FCFE7F6149E8
:10311000281C00F0E3FC311C201CFFF7DBFB201C0B
:10312000FFF736FD201C0021FFF70AFB231C293383
:10313000187007380128DDD85749281C00F0CEFC4C
:10314000F87F002100F08CFB0521B722201CFFF73F
:103150001AFB0137201C06214022FFF714FBFB7FDE
:10316000FF2B06D14D4A1378032BC3D8591C11707D
:10317000FB774B49281C00F0B1FCFB7F494A9900C2
:103180008C50002B02D1301C474908E0012B02D1A2
:10319000301C464903E0022BACD14549301C0322C8
:1031A00000F000F94349281C00F098FC201CFFF7B0
:1031B0000FFD201CFFF7CAFD201CFFF78BFD7D21B2
:1031C0000422201CFFF7DFFA7E213722201CFFF7A4
:1031D000DAFA231C2A331A7803258C232A401A434F
:1031E0003021201CFFF7CFFA32218822201CFFF764
:1031F000CAFA42223321201CFFF7C5FA201C0821FD
:10320000FFF75AFD2C49022203A802F05BF90222C3
:10321000201C03A9FFF756FD2368201C1B6C00210E
:10322000984773210022201CFFF7ADFA7421002279
:10323000201CFFF7A8FA75215322201CFFF7A3FAE0
:1032400076216422201CFFF79EFA77210022201CA1
:10325000FFF799FA50222A21201CFFF794FA201C2C
:10326000FFF79FFC291C201CFFF710FD201C0021EC
:10327000FFF71CFF201C291CFFF7D5FC019805B0A7
:10328000F0BDC04600030020785B00007F5B0000BB
:10329000865B00008D5B0000945B0000D401002081
:1032A0009B5B0000C80100207130000085300000E9
:1032B00099300000A25B00001059000038B5041CD2
:1032C0000D1CFFF7A1F8012255406A42D2B2201C22
:1032D0004321FFF758FA38BD38B5051C0C1CFFF721
:1032E00095F8281C3F21221CFFF74DFA38BD00003D
:1032F00008B5024800F050FE08BDC0463802002064
:1033000008B5024800F048FE08BDC046D8010020BC
:10331000F7B5164F1649381C00F086FC15491648BB
:1033200000F082FC1549164800F07EFC154916484D
:1033300000F07AFC1549164800F076FC154D03267E
:103340000124281C144900F06FFC391C0096231C32
:1033500001940022114800F0FBFD0096291C019405
:103360001F221E230E4800F0F3FDF7BD9C02002033
:1033700000080042000C0042A002002000100042A1
:10338000A40200200014004298020020001800420D
:10339000A8020020AC020020001C004238020020DD
:1033A000D8010020F0B51823434385B00292364A75
:1033B0001625D3185D5701900391691C62D0102D1A
:1033C00060D0324B324C196800291FD14422314859
:1033D00002F081F830491022CA67304BC021490001
:1033E0005A50C12189005858FF26B04358501A60DE
:1033F0002B4A2C4B5A802378022213432370637884
:10340000DB09012BFBD0214B01221A6001276369E4
:103410003E1CAE40334363610021019800F0C2FAC4
:103420001C4A0399AB009950072D00DC0027FB00D4
:10343000029AED1AAD00042A22D8101CBF0001F038
:1034400057FF03080D121700114B0522FF18BB6927
:1034500012E00F4904227F18BB690DE00C4ABF1827
:10346000BB69032208E00A4B0222FF18BB6903E094
:10347000074901227F18BB69AA40151C1D43BD6185
:10348000B6B2E66005B0F0BDAC5B0000F40200200F
:1034900000180040B002002004E100E000E100E07C
:1034A00005400000000C004070B50024084D0126C6
:1034B0002B69A640334206D0064BA200D358002BFE
:1034C00000D098472E610134102CEFD170BDC0465A
:1034D00000180040B0020020FEE7000008B5034BD2
:1034E0001B68002B00D0984708BDC046F80200209A
:1034F00038B50F490F4CA14204D100F055F800F047
:10350000EBFD0BE00C4D8D42F7D00023CA18E818F4
:10351000A24204D2006804331060F7E7FEE790424D
:10352000EBD0064B064A9342E7D2002204C3F9E7E8
:10353000000000200C010020E46000000C010020CD
:10354000F808002008B500F02CF8002801D100F0A0
:103550001DF808BD014B18607047C046F8020020F6
:10356000014B18687047C046FC02002070B5041E6D
:1035700008D0054B1D681E1C00F012F833685B1B59
:10358000A342F9D370BDC046FC02002008B5034B2E
:103590001A6801321A6000F017FB08BDFC02002017
:1035A000704700207047000070B54A4A1E215368DA
:1035B00002208B430343484953608B69082423430B
:1035C0008B61464C464B9C829C8A20439882101CFF
:1035D000DA689407FCD5434A012414701478E5078F
:1035E00004D5404C647864B2002CF7DB012494606D
:1035F000547864B2002CFBDB3B4D3A4C6560547848
:1036000064B2002CFBDB8225364CED0165805478DA
:1036100064B2002CFBDB9C8C8025AC439C84DC6872
:10362000E606FCD5314D2E4CE562DD682C4CEE06ED
:10363000FBD5A58C2E4E3543A584DD68284CEE06BF
:10364000FBD5A58C02263543A584DC682506FCD570
:10365000234CE4686606F8D5DC68E506FCD5002452
:103660009460547864B2002CFBDB224D1D4C6560E5
:1036700055781C4C6DB2002DFADB1E6A1E4D35408C
:103680001D621D6A8026B5431D620323A3601B4B88
:10369000636053785BB2002BFBDB00230B72184A8C
:1036A0004B728B72CB72174BFF211A60164B174A65
:1036B0001B6812685C01D20E214011439A06520F1A
:1036C00012020B1C1343124A1385436880221343D2
:1036D000436070BD00400041000400400C06000043
:1036E00000080040000C004001050100B805FF7D06
:1036F000040A000000070300FFFCFFFF03060100AF
:10370000006CDC020000002024608000206080004B
:1037100000400042314BFA21186810B5890001F0D1
:10372000F1FD2F4B0138984224D82E4A2E4B506081
:10373000186AC0210002000A090601431962002428
:10374000072194601160196A80220902090A120691
:103750000A431A62254BFC211A6A0A431A62196A43
:10376000FC2292010A431A62196AA022D2020A4379
:103770001A6200E0FEE7201C0021013400F070F81E
:103780000E2CF8D11A4C63785BB2002BFADB194B84
:103790006380194B5A7ED209012AFAD0E422D20062
:1037A0009A803F22DA70597E134AC9090129FAD05A
:1037B000C0235B0100201361907000F023F8637850
:1037C0005BB2002BFBDB0D4A094B5A800C4BDA79BC
:1037D000D209012AFAD041225A7010BD00000020FF
:1037E000FFFFFF0010E000E000ED00E000040040FB
:1037F000000C00401E40000000400042214000003C
:103800000048004200B5144A517E131CC909012921
:10381000F9D00138042813D81969104A0A401A61EE
:103820005A780F218A4301F063FD0305090703005D
:10383000012102E0032100E002210A435A700AE05C
:103840001169F0231B050B43136153780F218B4340
:1038500002210B43537000BD00400042FFFFFFF008
:1038600010B51824021C201C5043274B1818007A4E
:1038700040B2013046D0032944D8081C211C01F075
:1038800037FD02331121624398569A18C3011F482D
:1038900052681B189918403102200870012191408C
:1038A00059602FE06243985618499A185268C3012C
:1038B0005B18991840310620087001219140596029
:1038C00099611FE051435A56104859184B68D2016C
:1038D0001118C81840300624047001209840486030
:1038E0000B49521850600DE0624398569A18C30174
:1038F000064852681B1899184031022008700121AF
:103900009140996010BDC046AC5B0000004400418E
:103910001044004118235843134AF0B513180824E3
:103920001C5701341FD08256104ED2015D6801240D
:103930009019231C8668AB401E420BD10E1C771ECB
:10394000BE41401934404030A50004780426B443F9
:103950002C430470002903D105495218536002E03A
:10396000024E92199361F0BDAC5B0000004400412F
:103970001044004118235843084A08211318595687
:10398000013109D082560649D20152185B68106A8B
:10399000D8400123184000E000207047AC5B0000D5
:1039A0000044004118224243F8B52D4D0824AA18BE
:1039B0001457031C621C50D0481C00240C284CD8FF
:1039C00001F096FC071E1E1E1E1E1E1E1E0A0A0A5F
:1039D0000A000124644240E0092902D1181C002198
:1039E00003E00A2904D1181C0221FFF739FF23E064
:1039F00000240B2931D1181C0121FFF731FF2CE0E5
:103A000018225343EA185268EB560120141C044054
:103A10005508DB01002C11D0124C1B195D193035F3
:103A20002E780C010F21314021439A18C9B2297018
:103A3000403213781843107000240EE0094E0F270F
:103A40009B195D1930352E789A18BE433143C9B29F
:103A500029704032137818431070201CF8BDC046FE
:103A6000AC5B000000440041F7B58A18061C0D1C31
:103A700001920C1C019B671B9C4207D03368217884
:103A80001B68301C984701340028F3D1381CFEBD58
:103A900008B50368C9B21B68984708BD38B5051C4E
:103AA0000C1C081E07D001F0C1FD2B68021C5B68CE
:103AB000281C211C984738BD08B5FFF7EFFF08BD4B
:103AC00008B503681B68984708BD000008B502499F
:103AD000FFF7E4FF08BDC046CC5F000038B5041C0A
:103AE000FFF7DCFF051C201CFFF7F0FF281838BD8E
:103AF000F0B58DB0161C0BAB002201900C1C1A7097
:103B0000012E00D80A266D462B35201C311C01F0F1
:103B10003DFC201CCFB2311C01F0F4FB291C041C1D
:103B2000092F01D8303700E03737FFB22F70013D41
:103B3000002CEAD10198FFF7B1FF0DB0F0BDF8B548
:103B4000041C0D1C161E04D10368C9B21B689847DB
:103B500012E00A2A0DD100290ADA2D21FFF7B0FF61
:103B60006942071C321C201CFFF7C2FFC01903E08A
:103B700000E0D2B2FFF7BCFFF8BD38B5041CFFF778
:103B8000DEFF051C201CFFF7A1FF281838BD08B573
:103B9000002A02D1FFF77CFF02E0D2B2FFF7A8FFB4
:103BA00008BD08B5FFF7F3FF08BD0000014B186022
:103BB0007047C04604000020024B012252421A60A6
:103BC0007047C04604000020114A1368591C1DD0DC
:103BD000013B1360002B19D172B60E4B1A7DD10731
:103BE000FBD5198B2022FF320A431A830A4ADA6175
:103BF0000A4A1A801A7DD107FCD5BFF34F8F084AB5
:103C0000084BDA60BFF34F8FC046FDE77047C046F0
:103C100004000020004000410210000002A5FFFF48
:103C20000400FA0500ED00E001607047F7B508AC4C
:103C3000267804689D1E27686C1EA541ECB2920789
:103C400005683A4327063A432A6002680725294057
:103C50005068B501002C00D05C03294301430C439C
:103C60005460F7BD30B50368C0251C68AD0312056C
:103C70002A402243C024A4020904214011431960B0
:103C800003685A6814435C6030BD036801211A68F8
:103C90000A431A600268116801231942FBD1D169F5
:103CA0001942F8D17047036802211A680A431A6062
:103CB0000268D3699907FCD4704703681A7ED1075C
:103CC00002D41A7E9107FCD57047036800225A83FC
:103CD00070470368187E4007C00F70470368187E5E
:103CE000C009704703688022197E52420A431A763F
:103CF00070470368188DC0B2704703681A7E0120B0
:103D00000242FBD01985704770B5036801268D0704
:103D1000ED0F31401C686D070907294321431960E5
:103D200004685100034801F0EDFA0138C0B2207375
:103D300070BDC046006CDC02036801211A680A43AA
:103D40001A600268116801231942FBD1D169194236
:103D5000F8D17047036802211A680A431A600268A2
:103D6000D3699907FCD470470368DA699107FCD4DA
:103D70001A6802218A431A60704703689A6A520AD5
:103D800052021143996203681A7E5107FCD5986A62
:103D9000C0B270470368224A30B5934211D0214A1D
:103DA000934211D0204A934211D0204A934211D01D
:103DB0001F4A934211D01F4A934230D10E23192239
:103DC0000DE0092314220AE00A23152207E00B2341
:103DD000162204E00C23172201E00D231822DCB286
:103DE000154901209B08A0409B0008605B18032038
:103DF000C021890004405D58E000FF248440A543B1
:103E00002C1CC0258540281C204358508023DB01F2
:103E10001A430A4B5A805A7852B2002AFBDB30BD53
:103E200000080042000C0042001000420014004252
:103E300000180042001C004200E100E0000C0040BD
:103E4000F8B5041C151C0E1C1F1CFFF7A3FF201C3B
:103E5000FFF71BFFB1001C220A4069072368090C09
:103E60000A431A60226884239375012E1AD108210F
:103E7000012D00D110210C4B79431868C00001F0CE
:103E800041FA236807219A890140D2044903D20CE0
:103E90000A439A8123680004C20C9889400B4003AE
:103EA00010439881F8BDC04600000020F7B501938B
:103EB00008AB041C1F780D1C161CFFF73DFF201CCF
:103EC000FFF768FFBF070C221743C0229203360595
:103ED0001640C02292022D0423683E4301991540EA
:103EE000354307221D600A408021236889020A4366
:103EF0005A60F7BD0120704708B50368014ADB69C5
:103F0000984708BD1304000010B5041C0069FFF7B2
:103F1000BCFE201C143001F06DF910BD08B500691D
:103F2000FFF7CBFE08BD08B5143001F075F908BDE8
:103F300008B5143001F076F908BD08B5143001F069
:103F40005DF908BD08B50069FFF7D7FE012008BD7F
:103F5000F7B51D1C08AB1B78041C009309AB1B783C
:103F6000161C019300234360FA239B008360094BD6
:103F70000F1C08330360143001F026F9009A231C4B
:103F80005C3327619A70019A1E705D70201CDA7094
:103F9000FEBDC046E05F000010B5041C0069FFF7DD
:103FA00098FE002807D02069FFF7A3FE011C201C03
:103FB000143001F014F92069FFF790FE002805D0B5
:103FC0002069FFF78FFE2069FFF77FFE10BDF02309
:103FD000081C18403038434258417047F0231B01F9
:103FE000194080239B0099420CD0C0239B0099422A
:103FF00006D080235B000520994204D0002002E017
:10400000072000E0062070470F231940012905D042
:1040100002394B424B410220C01A00E00020704799
:10402000F0B5031C85B003915C33041C1827187885
:104030003B1C43431B4E0821F3185956151CFFF730
:10404000B1FC231C5D33187808214743F6197156DB
:10405000FFF7A8FC01210A1C039B2069FFF7F0FE73
:10406000291C201CFFF7BAFF291C071C201CFFF786
:10407000CBFF291C061C201CFFF7A9FF391C009050
:10408000331C20690122FFF7D1FD231C5F3319780F
:10409000013B1A782069FFF7E5FD2069FFF703FE71
:1040A00005B0F0BDAC5B0000002110B5041E8C42D1
:1040B00004D001F06DFA211C01F0C8F9081C10BDF4
:1040C00010B5041E8C4203DA081AFFF7EDFF04193D
:1040D000201C10BDFEE7704710B5FFF71BFB01F079
:1040E000C1F9FFF7F8FF0120FFF740FA084C201C48
:1040F00000F0D0FA201C00F045FBFEF729F8FEF78F
:1041000077F8044B002BFAD000E000BFF7E7C04679
:10411000CB070020000000003F20704713B5026865
:104120006B46D97107335468191C0122A04716BD8C
:1041300008B50069022100F029FC08BD08B5006936
:10414000032100F039FC08BD38B50D1C041C131CFC
:10415000006903212A1C00F02BFD002801D1012356
:10416000636038BD10B5054C23685A1C04D1036840
:10417000DB6898472060031C181C10BD5800002005
:10418000074A08B51368591C04D00121494211603F
:10419000181C03E00069022100F0FCFC08BDC046C9
:1041A0005800002008B50378034902330370422207
:1041B000024800F0B3FD08BD14000020CB0700202A
:1041C00010B50178031C42780020A12908D1212ACA
:1041D0002FD118481849072200F0A0FD012028E03F
:1041E000212926D1202A05D113490722114800F0A0
:1041F00029FC04E0222A10D19A780F4BDA710E4B79
:1042000096221968D200914210D1DC7901231C401A
:104210000CD1FA20FFF7CAFC0AE0232A09D1DA7888
:104220009B7812021A43054B1A6002E0FFF7C4FCA8
:10423000002010BDCB070020080000201000002047
:1042400070470000064BFA21890099600549002259
:104250000831196004495A6019611A767047C046DE
:104260000003002010600000CB07002070B5C2B230
:1042700019495301CB189E68184DC0242E40A4053F
:1042800026439E60164E8001096830180832586037
:104290005201505C0726B0430126304350549E69BA
:1042A00035402C439C610F4C5C61505C7024A043F2
:1042B0001024204350549C680B488A1820408024C6
:1042C00064032043986098684021800B80039860C5
:1042D00053790B43537170BDD4070020FFFFFF8F4C
:1042E000EC05002028040020FF3F00F038B5041C36
:1042F00008CC01211A78051C0A431A708022201C60
:104300000021520001F0E7F82B689A78D107FCD41D
:104310005C6238BD134BF0B51B6899035A029B01D0
:10432000C90ED20E5B0F1F2900D105211F2A00D113
:104330001D22072B00D1032304688E01278D0A4913
:104340001F2539403143218501682A400C8DAC433B
:1043500022430A8502681903108D044B03400B4366
:104360001385F0BD246080003FF8FFFFFF8FFFFF43
:10437000EFF3108303600123436072B67047036854
:10438000002B02D162B6BFF36F8F704737B5056956
:10439000041C6846002D12D1FFF7EAFF019B013B88
:1043A00003D3621DD57FEDB2F9E768460193FFF7AD
:1043B000E6FF0020854217D0206AE36913E0FFF78B
:1043C000D7FF019B0025013B04D3221C3432157812
:1043D000EDB2F8E768460193FFF7D1FF0020854270
:1043E00002D0206BE36AC01A3EBD0000436810B5DE
:1043F0001A68037A01215B01D318FF339A7A0A43C2
:104400009A72037A42685B01D318C2689C6891046F
:104410000B4A090922400A439A60037A42685B0109
:10442000D3189A684021920B92039A6043681A68E5
:10443000037A08335B01D3181A790A431A7110BD45
:10444000FF3F00F0F7B50569041C0E1C171C6846F9
:10445000002D1FD1FFF78CFF019B013B5A1C06D09A
:10446000621DD17F5A1E00293AD0131CF6E7684618
:104470000193FFF784FF0025E369BD4235D0226A2E
:10448000934232D25A1CE261A269D3181B78735549
:104490000135F1E7FFF76CFF019B013B5A1C08D087
:1044A000221C343215785A1EEDB2002D18D0131C80
:1044B000F4E768460193FFF762FF0025E36ABD4217
:1044C00026D0226B934241D322E0621D0021D17796
:1044D00030321678581E8E4214D1031C5A1CF4D167
:1044E00068460193FFF74BFF38E0226A934235D1CB
:1044F0000023E361012323616846FFF739FF019B35
:10450000013BEBE71170201C0193FFF76FFFF6E70B
:10451000226B934222D10023E36223616846FFF7B6
:1045200027FF019B013B5A1CDAD0221C34320021A8
:10453000117001321678581E8E4201D1031CF2E729
:104540001170201C0193FFF751FFEAE75A1CE26249
:10455000A26AD3181B7873550135AFE7281CFEBD3E
:1045600037B54368027A1B68083252019A18041C56
:10457000D0790123FF21184255D0D371A068656915
:1045800062680140002D1FD14901521891688904C9
:10459000890C2162216A002942D06361A36A6846BE
:1045A0005360FFF7E5FE019B013B5D1C34D0621DAB
:1045B0000120D0772F3211785D1EC9B21218002960
:1045C00015D111702B1CF0E74B01D3189A68920497
:1045D000920C2263226B002A22D000226261A2691F
:1045E00068465A60FFF7C4FE019B013B12E001934D
:1045F00010706846FFF7C3FE15E0221C343201201C
:104600001070621DD17F5D1EC9B230320029EED11B
:1046100011702B1C5D1CF0D168460193FFF7AFFEB3
:10462000201CFFF7E3FE37BD37B500236C46E3716E
:104630000734201C0D1CFFF7B5FD2B6818182860E7
:1046400000F044FE211C00F0FAFD2B6818182860C9
:1046500020783EBD03290BD10D4BB2221B685200BE
:10466000985C8021494201439954022168220CE060
:1046700001290CD1064B92221B685200985C8021C4
:1046800049420143995402212822FF32995470472C
:10469000D407002038B5304B00240121051C1A2016
:1046A0001C70FFF7DDF81A200121FFF733F92B4BBF
:1046B000192001211C70FFF7D3F819200121FFF701
:1046C00029F9274B2021DA6901200A43DA61254BB9
:1046D00006241A7802431A70234B0F22197891434B
:1046E000197019782143197020490C7820430870FB
:1046F00019780A401A701A7860210A431A701C4B04
:104700001C4A5A805A78D209FCD11B48FEF722FF76
:104710001A4C201CFFF7EAFD201CFFF7FBFD236865
:104720007F2219780A401A701A7804210A431A70F5
:104730001A890C218A431A81C121114A89005058D3
:104740000002000A5050802111601A7802210A43A9
:104750001A7001232B7038BDE8050020D007002017
:1047600000040040584400413C4400415944004189
:10477000000C004006400000A9510000D4070020B2
:1047800000E100E00078002810D0094B01211B68EF
:104790001A898A431A811A8B08210A431A831A8BB1
:1047A00004210A431A83034B00221A607047C04653
:1047B000D4070020D80800200F4B9A69920B92036F
:1047C0009A611B680222FF331A7298798022524242
:1047D00002439A711A7A9007FCD5084B081C997A03
:1047E0007F221040914301439972997A802252426C
:1047F0000A439A727047C046D40700200050004117
:1048000010B50B790C1C002B0BD1081CFFF7D8FC42
:10481000002804D1094B9A69920B92039A610120F6
:104820000BE000F053FD211C00F03DFD0028F6D107
:10483000024B9A69920B92039A6110BDD407002033
:10484000F8B50D1C832A16D1CAB242495301CB18C0
:104850009C694148AD012040C024A40520439861D3
:104860003E48083245195D610B685201D15C7020E9
:104870008143402065E0022A45D1382000F0DBFC6E
:10488000374B344F8026036076000023421D0362BD
:1048900003614361C36147608560C660D3772F328F
:1048A000041CC36203631370301C537000F000FEDD
:1048B000A061301C00F0FCFDFF232A1C1A405201AD
:1048C000A062BF18B968244A07260A40C02189059A
:1048D0000A43BA60A1686268194012680831490148
:1048E000885CAD00B043032630438854A1686268F9
:1048F0000B405B01A169D3185960201CFFF776FDBE
:10490000184BEC5025E0822A1ED1CAB2114953013E
:10491000CB189C691048AD012040C024A405204359
:1049200098610E48083245195D610B68520199186B
:104930000C798020404220430871D15C7020814373
:1049400030200143D15404E0002A02D1081CFFF7B3
:104950008DFCF8BDD4070020FFFFFF8F2804002046
:1049600040600000AC07002038B5051C0124064B50
:10497000A200D258002A06D0211C281C0134FFF7BF
:104980005FFFE4B2F3E738BD5C00002008B5084BD8
:104990008A00D058002803D003689B68984706E037
:1049A000C9B2044B4901591888688004800C08BDBD
:1049B000AC070020D407002010B50C1CFFF7E6FF61
:1049C00000280CD0064BE1B21B6808314901591888
:1049D0004A7980235B4213434B710223CB7110BD94
:1049E000D407002070B5CAB2134B14485401890192
:1049F0005918031959609D681149083229408025CA
:104A0000AD022943996099684026890B8903996012
:104A10000368510159180D7935430D715101591829
:104A200089794D06FAD551015918C979CD07FAD5BA
:104A30000419A068C0B270BDEC050020D4070020A6
:104A4000FF3F00F038B50C4B141C1B680D1CFF33E6
:104A50005A7940210A435A710021FFF7C3FFA0424F
:104A600000D9201C0023A34204D0044A9A5CEA54D3
:104A70000133F8E738BDC046D4070020EC0500201C
:104A800010B5C9B20C48490143189A689204920CB7
:104A90003F2A08D9141C9A68403CA404920BA40C29
:104AA0009203224302E09A68920B92039A604118A3
:104AB0008868C0B210BDC046D4070020F0B51C1CE9
:104AC0002F4B85B01B68061C0D1C0292002B51D089
:104AD0002C4F3978C9B2002902D11920FEF71AFFEC
:104AE00064233B70284BAA00D058002805D00368E7
:104AF00002995B68221C984740E0301C291CFFF794
:104B000045FFA04204D2301C291CFFF73FFF041CC4
:104B1000291C301CFFF7B4FF1C4FE9B24A01019178
:104B2000396803928B18FF335A7A01210A431849D6
:104B30005A72AB01C9180298221C00F0C3FC002C69
:104B40001BD0301C291CFFF721FF002815D1019B29
:104B50003A6808335B01D318197940200143197171
:104B60000121D97103995318FF339A7A01210A431D
:104B70009A7202E00120404200E0201C05B0F0BD26
:104B8000D8080020D0070020AC070020D407002060
:104B9000EC05002013B56C460734221C0123FFF7F7
:104BA0008DFF012801D1207801E00120404216BD8F
:104BB000F0B51C1C3F4B85B01B680E1C0292002BED
:104BC0006AD08023DB019C4266D83B4D2978C9B26C
:104BD000002902D11A20FEF79DFE642300222B70CB
:104BE0000092002C56D0354DF7B22B6801933B1C38
:104BF0000833019A5B01D3189B79DB091AD0304B3B
:104C00003049186800F07EFB2F4B1721584300F005
:104C100079FB3B1C0833019A5B01D318DB799A07B7
:104C200008D42A4B9A5D002A38D1421E002835D07C
:104C3000101CEEE7254B00229A55251E3F2D00D96A
:104C40003F25234AB301D318181C02992A1C039349
:104C500000F038FC194A7B01D318039AA9045A6161
:104C60009A69890C920B92030A439A613B1C019A40
:104C700008335B01D3180222DA715979802252423B
:104C80000A435A71009B029A5B1952190093641BE4
:104C90000292A6E700980BE0012008E001229A5555
:104CA0007B01ED18AB69101C9B0B9B03AB61404271
:104CB00005B0F0BDD8080020E8050020D40700208A
:104CC0000000002040420F0070110100200400206D
:104CD0002804002070B50E4D1C1C8B01ED18281CFB
:104CE0000E1C111C221C00F0EDFBF6B209497601E6
:104CF00089194D618A69084B201C13408B618B69AF
:104D0000A2049B0B920C9B0313438B6170BDC046A6
:104D100028040020D4070020FF3F00F0F7B5114B16
:104D200001901B780F1C141C002B19D10E4B1E7800
:104D3000002E01D1151C08E00C4D0D482E8880195D
:104D4000361900F0BFFB2E800AE0002D08D0BA19FA
:104D50002B1C01980021FFF7BDFF36182D1AF4E730
:104D6000201CFEBDCA070020C80700201E0400202A
:104D70001D030020F8B50E1C00AF151E012D28D90B
:104D8000D31DDB08DB006A46D21A9546081C00F0EA
:104D90004DFC01306C4640000323207063700222FA
:104DA000AA420ED23378002B0BD0511CC9B2013667
:104DB000A354A94204D0002302326354D2B2EFE7D5
:104DC0002A1C0548211CFFF7A9FF431E9841C0B2C9
:104DD00000E00020BD46F8BDCB07002008B5044B1D
:104DE00000221A70034B04491A88FFF797FF08BD89
:104DF000C80700201E0400201D030020F0B5204A33
:104E000087B001230026009102A91370051C0296A9
:104E1000FFF70AFC03AC092701903A1C201C311C47
:104E200000F059FB02236370A023E371FA2323727D
:104E3000029B0122DB196380019B62712371104A7E
:104E4000009B27701670BB4205D1281C211C1A1C20
:104E5000FFF764FF11E00B4B01221A700A4B211C73
:104E60003A1C281C1E800296FFF758FF281C02A936
:104E7000FFF7DAFB281CFFF7B1FF012007B0F0BDF8
:104E8000CA070020C80700201E04002070B5CE7895
:104E90008AB0051C0C1C022E08D1C9882348FFF7D4
:104EA000ADFF031C581E8341D8B23DE000F00EFA5E
:104EB000211C00F0D9F9002803D0C3171B1AD80F02
:104EC00032E0012E04D1E2881949112A27D823E0C3
:104ED000032E29D1A278002A05D11649E2880B7841
:104EE000934219D81BE0022A03D1A279281C124947
:104EF00004E0012A05D1A2791049281CFFF73AFFE6
:104F000012E0032A10D100F0E1F901A900F0BCF988
:104F1000A279281C01A9F1E7D2B2002A00D10A78AF
:104F2000281CFFF7FBFE01200AB070BDCB07002054
:104F30005E6000005A600000706000005060000079
:104F400073B5051C48780C1C0B2878D800F0D0F9F4
:104F5000081C7728773E4306474B686F00206FE0B8
:104F6000097801AA002903D111705170281C09E0A9
:104F7000002313705370334B1B78012B00D1137037
:104F8000281C002102234FE08A780023012A04D143
:104F900001AA137053702C4BEEE72A4A137049E0B4
:104FA0008E78012E07D1284B01AA00211E701170A6
:104FB000281C331C38E0002E08D1224A012313702C
:104FC000224A9169890B8903916138E0A178281CF4
:104FD000FFF7F2FB33E0281CFFF758FF30E0281CF6
:104FE00000211B4A1FE00A780020D30628D1281C84
:104FF000FFF7BAFCA2781549154B02241A600A681B
:105000002A23FF33D05C2043D0544A20FF30145C65
:1050100001231C4314548A69920B92038A610EE0A7
:105020000C4A281C00210123FFF754FE07E08A7870
:10503000084B1A60054B9A69920B92039A61012002
:1050400076BDC0461C030020C9070020D4070020FD
:10505000D8080020CC070020F8B54B4B071C1C7863
:10506000002C00D08EE0494D2868838B19070DD5A0
:10507000201CFFF7FBF82B6810201A1CFF32917AD6
:1050800001439172424A146008229A832B689A8BDA
:1050900050071FD504229A833E4B1A78002A0AD063
:1050A0001A78013AD2B21A701B78002B03D11A2059
:1050B0000121FEF72FFC384B1A78002A0AD01A7803
:1050C000013AD2B21A701B78002B03D119200121AA
:1050D000FEF720FC2B68FF331A7AD10626D5102262
:1050E0001A725A7940210A432C495A710A7860236E
:1050F000381C1A4202D1FFF723FF01E0FFF780FBC3
:10510000002806D02B688022FF33997952420A4347
:1051100001E0234B20229A712B68FF331A7A500644
:1051200004D540221A72597A0A435A722968FE231A
:105130000E8C00241E40E1B2002E23D0321C01232D
:1051400022411A4216D0221C2868083252018218C5
:10515000D079184203D1D279DA401A4207D0114BE4
:10516000A200D058002809D003681B689847012383
:10517000A3409E430134092CDDD103E0381CFFF726
:1051800069FAF4E7F8BDC046C8070020D40700203C
:10519000D8080020E8050020D0070020EC050020FA
:1051A000FF500041AC07002008B50248FFF754FF4C
:1051B00008BDC046CB070020014A024B1A60704769
:1051C00000500041D407002010B500214022041CEB
:1051D00000F081F90023201C2364636410BD026C7D
:1051E00010B53F23541C2340446CA34201D081548A
:1051F000036410BD0023036443647047436C026C76
:10520000934206D0C25C3F2101330B404364101C23
:1052100001E0012040427047026C436CD01A00D577
:1052200040307047436C026C934201D0C05C01E097
:1052300001204042704708B500F03AF908BD70B54A
:1052400044680E1C0025002C09D02368201C5B68D4
:10525000311C9847002804DB2D18E468F3E7281C6C
:1052600001E00120404270BD38B544680D1C002C9F
:1052700008D02368201C9B68291C9847002802D16D
:10528000E468F4E7201C38BD38B544680D1C002CD8
:1052900007D02368201C291CDB689847E4682D1878
:1052A000F5E72C7038BD38B544680D1C002C08D0CB
:1052B0002368201C1B68291C9847002803D1E46838
:1052C000F4E7201C00E0012038BD0000064B01225D
:1052D000196810B51140054805D102240470042452
:1052E000447041601A6010BDE4080020DC08002012
:1052F00002B4714649084900095C49008E4402BC69
:105300007047C046002934D00123002210B48842DF
:105310002CD301242407A14204D2814202D20901E4
:105320001B01F8E7E400A14204D2814202D2490005
:105330005B00F8E7884201D3401A1A434C08A042A8
:1053400002D3001B5C0822438C08A04202D3001B3E
:105350009C082243CC08A04202D3001BDC08224355
:10536000002803D01B0901D00909E3E7101C10BC79
:105370007047002801D00020C04307B4024802A1B2
:105380004018029003BDC046D90000000029F0D0AB
:1053900003B5FFF7B9FF0EBC4243891A1847C04650
:1053A000002941D010B4041C4C40A4460123002223
:1053B000002900D54942002800D5404288422CD31C
:1053C00001242407A14204D2814202D209011B0117
:1053D000F8E7E400A14204D2814202D249005B0016
:1053E000F8E7884201D3401A1A434C08A04202D37E
:1053F000001B5C0822438C08A04202D3001B9C08BF
:105400002243CC08A04202D3001BDC082243002820
:1054100003D01B0901D00909E3E7101C6446002CE6
:1054200000D5404210BC7047002806D003DB0020A6
:10543000C043400801E08020000607B4024802A1F2
:105440004018029003BDC046190000000029EBD0AF
:1054500003B5FFF7A7FF0EBC4243891A1847C046A1
:105460007047C04670B50E4B0E4D0024ED1AAD10BE
:105470001E1CAC4204D0A300F35898470134F8E74F
:1054800000F022F9084B094D0024ED1AAD101E1C46
:10549000AC4204D0A300F35898470134F8E770BD3C
:1054A000E8000020E8000020E800002004010020BF
:1054B00008B5034B011C186800F016F808BDC0467B
:1054C000E400002010B50023934203D0CC5CC45408
:1054D0000133F9E710BD031C8218934202D0197002
:1054E0000133FAE77047000070B50323CD1C9D43DC
:1054F0000835061C0C2D01D20C2501E0002D3FDBE8
:105500008D423DD3204B1C681A1C211C002913D04E
:105510000868431B0DD40B2B02D90B60CC181EE07E
:105520008C4202D1636813601AE0486860600C1C0A
:1055300016E00C1C4968E9E7144C2068002803D1E8
:10554000301C00F061F82060301C291C00F05CF871
:10555000431C15D0C41C03239C4384420AD12560FC
:10556000201C0B300722231D9043C31A0BD05A4234
:10557000E25008E0211A301C00F046F80130EED16C
:105580000C233360002070BDEC080020E8080020E8
:10559000174B10B51C68A36B002B15D11820FFF713
:1055A00087FF144BA0630380134B4380134B83800E
:1055B000134BC380134B0381052343810B2383814A
:1055C0000122002302614361084B074AA46B206952
:1055D000616900F03DF801220023801859412061E3
:1055E00061614800400810BD2D7F954C2DF4515845
:1055F000E40000200E330000CDABFFFF34120000AA
:105600006DE6FFFFECDEFFFF38B5074C0023051CFD
:10561000081C236000F03EF8431C03D12368002BD4
:1056200000D02B6038BDC046F40800200023C25CC7
:105630000133002AFBD1581E7047000008B5034B08
:10564000011C1868FFF7E0FF08BDC046E400002019
:105650009C460304F0B51B0C17043F0C150C1E1CD4
:10566000041C000C7E436B4347434543FB18300C3E
:105670001818874202D980235B02ED18030CED183D
:1056800063465C434A433604360CA1180004801973
:105690004919F0BD094A1368002B0CD01818694647
:1056A000884202D81060181C7047054B0C2201205C
:1056B0001A604042F8E7034B1360EFE7F008002060
:1056C000F4080020F8080020F8B5C046F8BC08BC73
:1056D0009E467047F8B5C046F8BC08BC9E46704769
:1056E00049276D20416C6976650046726565526197
:1056F0006D3A2000696E6974206661696C656400AA
:1057000052485F504C4154464F524D3A2000536529
:105710006E64696E6720746F20726632325F7365E3
:10572000727665720077616974696E6720666F7260
:10573000207061636B6167652073656E74007061D2
:10574000636B61676520686173206265656E2073B5
:10575000656E7400676F74207265706C793A200012
:1057600072656376206661696C6564004E6F2072B5
:1057700065706C792C20697320726632325F7365B4
:10578000727665722072756E6E696E673F0048654D
:105790006C6C6F20576F726C642100000000000079
:1057A000000000000000000001240000D5400000BF
:1057B000D5400000D5400000D54000006524000021
:1057C0007D240000C124000091240000EB2400008F
:1057D000052400000D240000112400001524000001
:1057E000192400001D2400000924000027240000C3
:1057F0002D24000033240000392400003F24000041
:10580000452400004B2400004F24000053240000D6
:10581000592400005F240000000000000000000088
:10582000D54000005525000057250000D540000058
:10583000D54000005F2500006325000067250000BB
:10584000592500005B2500005D25000000000000D8
:1058500000000000000000008525000095250000E4
:10586000A5250000E9250000B52500005F25000002
:105870006325000067250000C5250000D92500002C
:105880008125000000000000000000000000000072
:10589000DB260000D5400000D5400000D5400000C8
:1058A000D5400000652400007D240000C1240000D4
:1058B00091240000EB240000052400000D240000CA
:1058C0001124000015240000192400001D240000EC
:1058D00009240000272400002D24000033240000A8
:1058E000392400003F240000452400004B24000020
:1058F0004F24000053240000592400005F240000BE
:105900000D0E131516191A1C232526292A2C32349C
:105910002DD42B03F42041890036400A1D806010ED
:10592000622C00082B03F42041890036400A1D80B8
:105930006010622C33082B03F42041890036400AA2
:105940001D806010622C22081B0341602752000753
:10595000400A1E806013A92C223A1D03A1204EA5E7
:105960000013400A1E806027522C22481E03D000DC
:105970009D490045400A2080604EA52C22482B03FB
:105980003402752507FF400A1B80609D492C220FB9
:10599000020368013A9304D5400A1E806009D50CC1
:1059A000221F06034501D7DC076E400A2D80600EDA
:1059B000BF0C222E8A036001555502AD400A50806B
:1059C0006020000C22C82B03A1E010C70009400A88
:1059D0001D806004322C22042703A1E010C70006BA
:1059E000400A1D806004322C22072B03F4204189D9
:1059F0000036400A1D806010622C23081B034160A2
:105A000027520007400A1E806013A92C233A1D0369
:105A1000A1204EA50013400A1E806027522C234867
:105A20001E03D0009D490045400A2080604EA52CF1
:105A300023482B033402752507FF400A1B80609D15
:105A4000492C230F020368013A9304D5400A1E80B3
:105A50006009D50C231F06034501D7DC076E400AF9
:105A60002D80600EBF0C232E8A036001555502ADB8
:105A7000400A50806020000C23C8510368003A930C
:105A8000013D2C1128806009D52C2108C80339203C
:105A900068DC006B2A082A806013A92C2108C8033F
:105AA0009C00D1B700D4290429806027522C2108FA
:105AB000B8039C00D1B700D428822980604EA52C61
:105AC0002108A8039C00D1B700D428412980609DFB
:105AD000492C210898039C00D1B700D428202980A4
:105AE0006009D50C210898039600DA7400DC281FA1
:105AF0002980600A3D0C2108000000000000000021
:105B0000D9300000072C0000F92C0000A32E000063
:105B10003F2B0000652400007D240000C12400000C
:105B200091240000EB24000005240000D93200007D
:105B30001124000015240000192400001D24000079
:105B4000BD320000272400002D2400003324000073
:105B5000392400003F240000452400004B240000AD
:105B6000B92B000053240000592400005F240000DA
:105B70003B2B00003D2B0000636865636B310063C5
:105B80006865636B3200636865636B3300636865E7
:105B9000636B3400636865636B3500636865636BD2
:105BA0003600636865636B3700000000000000008A
:105BB0000B0000000200000004000000FF00FFFFD7
:105BC000FFFF0B00000000000A00000002000000C0
:105BD00004000000FF00FFFFFFFF0A0000000000BC
:105BE0000E0000000800000004000000FF00FFFF9E
:105BF000FFFF0E000000000009000000040000008C
:105C00001C000000FF00010001000900000000006E
:105C100008000000040000001C000000FF0000005D
:105C200000001000000000000F0000000400000051
:105C30001C000000FF00010301030F000000000032
:105C400014000000050000002C000000FF0002000E
:105C50000200040000000000150000000800000021
:105C600004000000FF00FFFFFFFF05000000000030
:105C700006000000040000001C000000FF000001FE
:105C80000001060000000000070000000400000002
:105C90001C000000FF0001010101070000000000DE
:105CA00012000000020000001C000000FF000003C2
:105CB00000030200000000001000000002000000CD
:105CC0001C000000FF0000020002000000000000B5
:105CD00013000000020000001C000000FF00030091
:105CE000030003000000000011000000020000009B
:105CF0000C000000FF000102FFFF01000000000097
:105D00000200000001000000020000000000FFFF90
:105D1000FFFF020001000000080000000100000079
:105D2000020000000200FFFFFFFF0800010000006A
:105D30000900000001000000020000000300FFFF56
:105D4000FFFF090000000000040000000100000047
:105D5000020000000400FFFFFFFF0400000000003D
:105D60000500000001000000020000000500FFFF28
:105D7000FFFF05000100000002000000010000001C
:105D8000020000000A00FFFFFFFF02000000000009
:105D9000160000000200000004000000FF00FFFFEA
:105DA000FFFF0600000000001700000002000000D6
:105DB00004000000FF00FFFFFFFF070000000000DD
:105DC0000C0000000300000004000000FF00FFFFC3
:105DD000FFFF0C00010000000A00000003000000AB
:105DE00004000000FF00FFFFFFFF0A0001000000A9
:105DF0000B0000000300000004000000FF00FFFF94
:105E0000FFFF0B0001000000030000000B0000007A
:105E100004000000FF00FFFFFFFFFF000000000084
:105E20001B0000000B00000004000000FF00FFFF4B
:105E3000FFFFFF00000000001C0000000600000043
:105E400000000000FF00FFFFFFFF0800000000004F
:105E5000180000000600000000000000FF00FFFF27
:105E6000FFFFFF0000000000190000000600000016
:105E700000000000FF00FFFFFFFFFF000100000027
:105E8000160000000300000000000000FF00FFFFFC
:105E9000FFFFFF00010000001700000003000000EA
:105EA00000000000FF00FFFFFFFFFF0000000000F8
:105EB000160000000200000000000000FF00FFFFCD
:105EC000FFFFFF00000000001700000002000000BC
:105ED00000000000FF00FFFFFFFFFF0000000000C8
:105EE000130000000200000000000000FF00FFFFA0
:105EF000FFFFFF0000000000100000000200000093
:105F000000000000FF00FFFFFFFFFF000000000097
:105F1000120000000200000000000000FF00FFFF70
:105F2000FFFFFF0000000000110000000200000061
:105F300000000000FF00FFFFFFFFFF000000000067
:105F40000D000000040000000C000000FF00010034
:105F5000FFFF0D000000000015000000050000001C
:105F60000C000000FF000300FFFFFF000000000026
:105F700006000000040000000C000000FF0000010B
:105F8000FFFFFF0000000000070000000400000009
:105F90000C000000FF000101FFFFFF0000000000F7
:105FA000030000000100000002000000FF00FFFFEE
:105FB000FFFF0300000000000200000001000000DD
:105FC000020000001400FFFFFFFF02000D0A006E38
:105FD000616E00696E66006F7666002E000000003C
:105FE0000000000000000000453F0000693A00008A
:105FF000273F00003B3F0000313F00001D3F0000F5
:10600000F93E000021400000093F0000F53E00007D
:1060100000000000000000001D4100004941000098
:106020003141000081410000654100003D41000018
:106030001941000000000000000000000000000006
:1060400061450000454400008D4300000000000051
:10605000537061726B46756E0000040309041201EF
:106060000002EF0201404F1B218D000101020301DC
:106070005346452053414D44323100430000000057
:106080000000000000000000000000000000000010
:106090000000000000000000000000000000000000
:1060A00000000000000000000000000000000000F0
:1060B00000000000000000000000000000000000E0
:1060C00000000000000000000000000000000000D0
:1060D00000000000000000000000000000000000C0
:1060E0000000000040420F00FFFFFFFF00C2010060
:1060F00000000800FFFFFFFF080B00020202000083
:10610000090400000102020000052400100104241B
:10611000020605240600010524010101070581038B
:1061200010001009040100020A0000000705020225
:10613000400000070583024000000000FFFFFFFF52
:106140000000000083000000020000008200000048
:10615000000000000000000000000000000000003F
:10616000000000000000000000000000806000004F
:10617000A0600000C06000000000000000000000FF
:1061800000000000000000007B6000000000000034
:1061900000000000000000000000000000000000FF
:1061A00000000000000000000000000000000000EF
